:100000000C949E000C94C6000C94C6000C94C60080
:100010000C94C6000C94C6000C94C6000C94C60048
:100020000C94C6000C94C6000C94C6000C94C60038
:100030000C94C6000C94C6000C94C6000C94C60028
:100040000C944E040C94C6000C941C040C94F603FF
:100050000C94C6000C94C6000C94C6000C94C60008
:100060000C94C6000C94C60007634236B79BD8A711
:100070001A39685618AEBAAB558C1D3CB7CC5763CD
:10008000BD6DEDFD753EF6177231BF000000803F7B
:1000900008000000BE922449123EABAAAA2ABECD97
:1000A000CCCC4C3E00000080BEABAAAAAA3E000009
:1000B0000000BF000000803F000000000008417801
:1000C000D3BB4387D1133D190E3CC3BD4282AD2B38
:1000D0003E68EC8276BED98FE1A93E4C80EFFFBE30
:1000E00001C4FF7F3F000000000000000008000284
:1000F00001000003040700000000000000000000F1
:100100000000250028002B0000000000240027002C
:100110002A00040404040404040402020202020289
:1001200003030303030301020408102040800102BB
:1001300004081020010204081020980411241FBE96
:10014000CFEFD8E0DEBFCDBF23E0A8E9B1E001C02A
:100150001D92A933B207E1F711E0A0E0B1E0E0E3BE
:10016000F8E102C005900D92A839B107D9F710E067
:10017000CEE9D0E004C02197FE010E94F60BCD39F4
:10018000D107C9F70E9442050C94160C0C9400008C
:10019000E8EEF1E0A089B18982E08C93A485B58571
:1001A0001C92A685B7858FEC8C93108EA489B58997
:1001B00086E08C93A289B3898C9180618C93A2890B
:1001C000B3898C9188608C93A289B3898C91806863
:1001D0008C930288F389E02D80818F7D8083089540
:1001E00090E0FC01EA5DFE4F24918E5E9E4FFC0183
:1001F0008491882399F090E0880F991FFC01E85FB3
:10020000FE4FA591B491FC01E250FF4F859194916E
:100210008FB7F894EC91E22BEC938FBF0895AF92D7
:10022000BF92CF92DF92EF92FF920F931F93CF93E3
:10023000DF936C017B018B01040F151FEB015E0145
:10024000AE18BF08C017D10759F06991D601ED91DA
:10025000FC910190F081E02DC6010995892B79F779
:10026000C501DF91CF911F910F91FF90EF90DF902B
:10027000CF90BF90AF900895FC01538D448D252FF2
:1002800030E0842F90E0821B930B541710F0CF9630
:10029000089501970895FC01918D828D981761F062
:1002A000A28DAE0FBF2FB11D5D968C91928D9F5F79
:1002B0009F73928F90E008958FEF9FEF0895FC0158
:1002C000918D828D981731F0828DE80FF11D858D0B
:1002D00090E008958FEF9FEF0895FC01918D228D9E
:1002E000892F90E0805C9F4F821B91098F73992723
:1002F000089588EE91E00E946D0121E0892B09F4B8
:1003000020E0822F089580E090E0892B29F00E9460
:10031000790181110C9400000895FC01A48DA80FAF
:10032000B92FB11DA35ABF4F2C91848D90E0019637
:100330008F739927848FA689B7892C93A089B18957
:100340008C91837080648C93938D848D981306C0F8
:100350000288F389E02D80818F7D80830895EF925C
:10036000FF920F931F93CF93DF93EC0181E0888F6F
:100370009B8D8C8D98131AC0E889F989808185FF3F
:1003800015C09FB7F894EE89FF896083E889F989E1
:1003900080818370806480839FBF81E090E0DF91E3
:1003A000CF911F910F91FF90EF900895F62E0B8D36
:1003B00010E00F5F1F4F0F731127E02E8C8D8E11F1
:1003C0000CC00FB607FCFACFE889F989808185FF58
:1003D000F5CFCE010E948D01F1CFEB8DEC0FFD2FFB
:1003E000F11DE35AFF4FF0829FB7F8940B8FEA8913
:1003F000FB8980818062CFCFCF93DF93EC01888D22
:100400008823B9F0AA89BB89E889F9898C9185FD8F
:1004100003C0808186FD0DC00FB607FCF7CF8C911D
:1004200085FFF2CF808185FFEDCFCE010E948D0147
:10043000E9CFDF91CF91089590E0FC01E651FF4FA5
:100440002491FC01EA5DFE4F3491FC01EE5EFE4F0B
:10045000E491EE23C9F0222339F0233001F1A8F40E
:10046000213019F1223029F1F0E0EE0FFF1FE250A8
:10047000FF4FA591B4918FB7F894EC91611126C00C
:1004800030953E233C938FBF08952730A9F0283044
:10049000C9F0243049F7809180008F7D03C080919E
:1004A00080008F7780938000DFCF84B58F7784BD05
:1004B000DBCF84B58F7DFBCF8091B0008F778093A9
:1004C000B000D2CF8091B0008F7DF9CF3E2BDACF34
:1004D0003FB7F89480919D0190919E01A0919F015A
:1004E000B091A00126B5A89B05C02F3F19F0019639
:1004F000A11DB11D3FBFBA2FA92F982F8827BC017E
:10050000CD01620F711D811D911D42E0660F771FA5
:10051000881F991F4A95D1F708952FB7F8946091D5
:10052000990170919A0180919B0190919C012FBF3C
:100530000895FC0101900020E9F73197AF01481BB5
:10054000590BBC0188EE91E00C940F018F929F92A1
:10055000AF92BF920F931F93CF93DF93CDB7DEB7C8
:10056000A1970FB6F894DEBF0FBECDBF19A24230DF
:1005700008F44AE08E010F5D1F4F842E912CB12CA0
:10058000A12CA50194010E943A09E62FB901CA01E4
:10059000EA30F4F4E05DD801EE938D01232B242B97
:1005A000252B79F790E080E0109719F0CD010E949B
:1005B0009902A1960FB6F894DEBF0FBECDBFDF91B2
:1005C000CF911F910F91BF90AF909F908F90089502
:1005D000E95CE1CF0C9499028F929F92AF92BF9207
:1005E000CF92DF92EF92FF920F931F93CF93DF93FF
:1005F000162F682F880F770B86EB91E00E94FC0B7B
:10060000EC012196612F110F770B86EB91E00E9490
:10061000FC0BFE0101900020E9F73197AF014C1B64
:100620005D0BFC0101900020E9F73197E81BF90B05
:100630004E1B5F0BBE01D0E0C0E0CE010E94070C54
:10064000FE0101900020E9F731977F01EC1AFD0AC5
:100650008E010E0D1F1DD12CC12CCE14DF04C4F54C
:10066000B6010D2C000C880B990B0E9441089B01D0
:10067000AC0160E070E080E291E40E94FF094B0170
:100680005C01F80162918F01062E000C770B60531C
:100690007109072E000C880B990B0E944108A501D7
:1006A00094010E947C084B015C01BE01DD0F880BA8
:1006B000990B0E9441089B01AC01C501B4010E9445
:1006C0005D090E94C909EB01FFEFCF1ADF0AC5CF10
:1006D000CE01DF91CF911F910F91FF90EF90DF90AE
:1006E000CF90BF90AF909F908F900895CF92DF9260
:1006F000EF92FF92CF93DF936C01990FEE08FF0802
:10070000F7FE1FC06DE288EE91E00E94AF01EC01A0
:1007100066277727CB016C197D098E099F094AE06E
:100720000E94A602C80FD91F86E391E00E94990299
:100730008C0F9D1FDF91CF91FF90EF90DF90CF90B6
:1007400008954AE0C701B6010E94A602EC01ECCF71
:10075000EF92FF920F931F93CF93DF9300D000D0BF
:10076000CDB7DEB788EE91E00E944B0188EE91E0B4
:100770000E944B018E010F5F1F4F78018A3341F0B9
:10078000F80181938F0188EE91E00E944B01F6CF32
:10079000C7010E941908182F88EE91E00E944B01B2
:1007A0008053990B8230910520F4682F812F0E948D
:1007B0001C0288EE91E00E944B018A3011F08D30CE
:1007C000C1F788EE91E00E945F018A3021F488EE43
:1007D00091E00E944B010F900F900F900F90DF91CE
:1007E000CF911F910F91FF90EF9008951F920F925C
:1007F0000FB60F9211242F933F934F935F936F93F4
:100800007F938F939F93AF93BF93EF93FF9388EE64
:1008100091E00E948D01FF91EF91BF91AF919F9167
:100820008F917F916F915F914F913F912F910F9099
:100830000FBE0F901F9018951F920F920FB60F9238
:1008400011242F938F939F93EF93FF93E091F801DF
:10085000F091F9018081E091FE01F091FF0182FDAC
:100860001BC09081809101028F5F8F7320910202E3
:10087000821741F0E0910102F0E0E851FE4F958FC0
:1008800080930102FF91EF919F918F912F910F9093
:100890000FBE0F901F9018958081F4CF1F920F927A
:1008A0000FB60F9211242F933F938F939F93AF9383
:1008B000BF938091990190919A01A0919B01B09171
:1008C0009C013091980123E0230F2D3758F50196B4
:1008D000A11DB11D209398018093990190939A01D5
:1008E000A0939B01B0939C0180919D0190919E01EA
:1008F000A0919F01B091A0010196A11DB11D80930F
:100900009D0190939E01A0939F01B093A001BF9180
:10091000AF919F918F913F912F910F900FBE0F90AC
:100920001F90189526E8230F0296A11DB11DD2CF66
:10093000E8EEF1E01382128248EE53E060E070E0EE
:10094000448355836683778388E291E09183808333
:1009500085EC90E09587848784EC90E09787868784
:1009600080EC90E0918B808B81EC90E0938B828B7C
:1009700082EC90E0958B848B86EC90E0978B868B55
:10098000118E128E138E148EE5E8F2E01682178215
:10099000108611861286138614861586168617868B
:1009A000108A118A128A138A148A158A84E2E0E076
:1009B000F1E0A1E1B3E001900D928A95E1F7EBEC53
:1009C000F2E085E090E09183808380E091E0A0E018
:1009D000B0E082839383A483B58316821782108646
:1009E0001186128613861486158615A616A617A6D6
:1009F00010AA11AA12AA13AA14AA1786168681E0B1
:100A000090E0A0E0B0E0808B918BA28BB38B148A36
:100A1000158A168A178A108E118E128E138E148ED6
:100A2000158E168E178E8FEF9FEFDC0180A391A39A
:100A3000A2A3B3A314A215AA16AA17AA10AE11AEA8
:100A400012AE13AE14AE8FEF9FE0A0E0B0E0809343
:100A5000080390930903A0930A03B0930B038093B8
:100A60000C0390930D03A0930E03B0930F03109209
:100A7000100340933503509336036093370370930C
:100A800038030895789484B5826084BD84B581600C
:100A900084BD85B5826085BD85B5816085BD809149
:100AA0006E00816080936E001092810080918100C1
:100AB00082608093810080918100816080938100B9
:100AC000809180008160809380008091B10084607B
:100AD0008093B1008091B00081608093B0008091DC
:100AE0007A00846080937A0080917A00826080939B
:100AF0007A0080917A00816080937A0080917A00F8
:100B0000806880937A001092C1001092C702109200
:100B1000C8021092C9021092CA0210928702109263
:100B200088021092890210928A020E948D026B0143
:100B30007C014B015C0128EB820E2BE0921EA11C74
:100B4000B11C0E948D026C157D058E059F0528F055
:100B500086169706A806B906A0F70E9468026B01E0
:100B60007C0138EE832E33E0932EA12CB12C0E9411
:100B700068026C197D098E099F09683E73408105E2
:100B80009105A8F331E0831A9108A108B10848EE55
:100B9000C40E43E0D41EE11CF11C81149104A10495
:100BA000B10429F70E94C8000E948D026093870259
:100BB000709388028093890290938A0289E391E07E
:100BC0000E94EA020E948D026B017C014B015C01D4
:100BD0008AE0880E911CA11CB11C0E948D026C152C
:100BE0007D058E059F0528F086169706A806B9068E
:100BF000A0F7C1E0C0939B020E948D026093870220
:100C0000709388028093890290938A028AE491E02B
:100C10000E94EA020E94C80081E591E00E949902C8
:100C200086E391E00E9499028CE090E09093B001FD
:100C30008093AF01C093AA0180E098E09093A30154
:100C40008093A2019093A5018093A4018AE090E093
:100C50009093AC018093AB0187E090E09093AE015C
:100C60008093AD01C093B10180E090E79093A7011C
:100C70008093A60180E090EF9093A9018093A80152
:100C80008AE00E94F0008091AD010E94F00061E0D6
:100C90008091AB010E941C0261E08091AD010E9435
:100CA0001C02CFB7F8948091A101811124C0ECE11E
:100CB000F1E08491E0E3F1E09491E82FF0E0EE0FB1
:100CC000FF1FE85FFE4FA591B491EC91E92321F459
:100CD00061E08AE00E941C028AE00E94F0008CB56C
:100CE00080618CBD8CB580648CBD8DE00E94F0006D
:100CF0008BE00E94F0008091A1018F5F8093A101A1
:100D0000CFBF8CB58F7D8CBD8CB5837F8CBD8CB5F2
:100D10008C7F8CBD8DB581608DBD8091CB020E9492
:100D2000F00080E0282E80E0382E0E948D02672B94
:100D3000682B692B09F4F3C00E948D020091B20167
:100D40001091B3012091B4013091B5016017710782
:100D50008207930708F464C10091B2011091B301B6
:100D60002091B4013091B5016B017C01C01AD10A08
:100D7000E20AF30A97018601083E13402105310576
:100D800008F4D5C06093B2017093B3018093B401AD
:100D90009093B50184EF91E0A0E0B0E080939302DE
:100DA00090939402A0939502B093960210929702AA
:100DB000109298021092990210929A0280918B02DE
:100DC00090918C02A0918D02B0918E0280938F023F
:100DD00090939002A0939102B09392020E948D0290
:100DE00060938B0270938C0280938D0290938E029D
:100DF00088EE91E00E945F01843611F40E94A803FE
:100E00000E948D026093870270938802809389020A
:100E100090938A020E948D026B017C0184E691E02E
:100E20000E94EA024AE061E070E080E090E00E9407
:100E3000A6028BE691E00E94EA024AE0C701B601F1
:100E40000E94A6028DE691E00E94EA0280918B0248
:100E500090918C02A0918D02B0918E02A701960113
:100E6000281B390B4A0B5B0BCA01B9014AE00E94EF
:100E7000A6028DE691E00E94EA0260918B027091D9
:100E80008C0280918D0290918E0200918F021091C0
:100E900090022091910230919202601B710B820BA3
:100EA000930B4AE00E94A6028FE691E00E94EA02BC
:100EB0000E948D024AE00E94A60281E791E00E9412
:100EC000990286E391E00E9499020E948D024B01F3
:100ED0005C017C016B0132E0C30ED11CE11CF11CF2
:100EE0000E948D02681579058A059B0528F0C616B3
:100EF000D706E806F906A0F788EE91E00E945F01A8
:100F0000843611F40E94A8030E948D0260938B0224
:100F100070938C0280938D0290938E0208C00E9481
:100F20008D02623071058105910508F005CF88EECC
:100F300091E00E944B018093E80162E681E60E9405
:100F4000EC025C0163E682E60E94EC026C0164E65E
:100F500083E60E94EC027C0165E684E60E94EC02D6
:100F60008C0166E685E60E94EC02EC0167E686E607
:100F70000E94EC024C0168E687E60E94EC023C010C
:100F800069E688E60E94EC022C0188E791E00E9465
:100F9000EA02C5010E9476038CE791E00E94EA0212
:100FA000C6010E94760380E891E00E94EA02C70130
:100FB0000E94760384E891E00E94EA02C8010E9440
:100FC000760388E891E00E94EA02CE010E9476034F
:100FD0008CE891E00E94EA02C4010E94760380E955
:100FE00091E00E94EA02C3010E94760384E991E045
:100FF0000E94EA02C2010E94760388EE91E00E94FC
:101000006D01892B09F093CF2114310409F48DCEA1
:101010000E947901882309F488CE0E94000085CEC1
:101020006093B2017093B3018093B4019093B501C2
:1010300093CEFC0188279927E89421912032E9F387
:10104000293010F02E30C8F32B3241F02D3239F414
:10105000689404C00E943708820F911D219120538B
:101060002A30C0F31EF4909581959F4F08957AE041
:10107000979F902D879F802D910D11240895E894BE
:1010800009C097FB3EF490958095709561957F4FD0
:101090008F4F9F4F9923A9F0F92F96E9BB2793957E
:1010A000F695879577956795B795F111F8CFFAF48E
:1010B000BB0F11F460FF1BC06F5F7F4F8F4F9F4FBF
:1010C00016C0882311F096E911C0772321F09EE81D
:1010D000872F762F05C0662371F096E8862F70E083
:1010E00060E02AF09A95660F771F881FDAF7880F5D
:1010F0009695879597F908950E948F080C9400099A
:101100000E94F20838F00E94F90820F0952311F0AF
:101110000C94E9080C94EF0811240C9434090E94F3
:10112000110970F3959FC1F3950F50E0551F629F11
:10113000F001729FBB27F00DB11D639FAA27F00D30
:10114000B11DAA1F649F6627B00DA11D661F829F57
:101150002227B00DA11D621F739FB00DA11D621F3C
:10116000839FA00D611D221F749F3327A00D611D59
:10117000231F849F600D211D822F762F6A2F11243B
:101180009F5750409AF0F1F088234AF0EE0FFF1F6E
:10119000BB1F661F771F881F91505040A9F79E3FC5
:1011A000510580F00C94E9080C9434095F3FE4F396
:1011B000983ED4F3869577956795B795F795E7951B
:1011C0009F5FC1F7FE2B880F911D9695879597F924
:1011D000089597F99F6780E870E060E008959FEFB9
:1011E00080EC089500240A941616170618060906BE
:1011F000089500240A94121613061406050608958D
:10120000092E0394000C11F4882352F0BB0F40F414
:10121000BF2B11F460FF04C06F5F7F4F8F4F9F4F54
:10122000089557FD9058440F551F59F05F3F71F0D6
:101230004795880F97FB991F61F09F3F79F087953D
:101240000895121613061406551FF2CF4695F1DFC6
:1012500008C0161617061806991FF1CF8695710556
:10126000610508940895E894BB2766277727CB018A
:1012700097F90895A1E21A2EAA1BBB1BFD010DC010
:10128000AA1FBB1FEE1FFF1FA217B307E407F50736
:1012900020F0A21BB30BE40BF50B661F771F881F12
:1012A000991F1A9469F760957095809590959B01A8
:1012B000AC01BD01CF0108955058BB27AA270E9459
:1012C00074090C9400090E94F20838F00E94F90891
:1012D00020F039F49F3F19F426F40C94EF080EF433
:1012E000E095E7FB0C94E908E92F0E94110958F3F7
:1012F000BA17620773078407950720F079F4A6F5FB
:101300000C9433090EF4E0950B2EBA2FA02D0B018F
:10131000B90190010C01CA01A0011124FF27591B3A
:1013200099F0593F50F4503E68F11A16F040A22F40
:10133000232F342F4427585FF3CF469537952795B1
:10134000A795F0405395C9F77EF41F16BA0B620BB0
:10135000730B840BBAF09150A1F0FF0FBB1F661FF7
:10136000771F881FC2F70EC0BA0F621F731F841F3A
:1013700048F4879577956795B795F7959E3F08F060
:10138000B0CF9395880F08F09927EE0F9795879522
:1013900008950E94D0096894B1110C9434090895FD
:1013A0000E94190988F09F5798F0B92F9927B751D3
:1013B000B0F0E1F0660F771F881F991F1AF0BA95F9
:1013C000C9F714C0B13091F00E943309B1E008951B
:1013D0000C943309672F782F8827B85F39F0B93F0D
:1013E000CCF3869577956795B395D9F73EF49095AC
:1013F0008095709561957F4F8F4F9F4F0895FA01AB
:10140000EE0FFF1F309621053105A1F16115710521
:1014100061F48038BFE39B0749F1689490388105F7
:1014200061F08038BFEF9B0741F099234AF5FF3FF9
:10143000E1053105210519F1E8940894E795D901F2
:10144000AA2329F4AB2FBE2FF85FD0F310C0FF5FA3
:1014500070F4A695E0F7F73950F019F0FF3A38F438
:101460009F779F930DD00F9007FC9058089546F0FA
:101470000C94EF0860E070E080E89FE308954FE788
:101480009F775F934F933F932F930E94FA0A2F9178
:101490003F914F915F910E947C080C94570A29F468
:1014A00016F00C94E9080C9433090C94EF080E9490
:1014B0001909A8F39638A0F707F80F92E8942BE3E0
:1014C0003AEA48EB5FE70E9492080F920F920F9260
:1014D0004DB75EB70F920E94420BE8E6F0E00E9423
:1014E000890A4F915F91EF91FF91E595EE1FFF1FE4
:1014F00049F0FE57E0684427EE0F441FFA95E1F7E4
:101500004195550B0E94BC0A0F9007FE0C94B00A3F
:101510000895DF93CF931F930F93FF92EF92DF9283
:101520007B018C01689406C0DA2EEF010E948F08BF
:10153000FE01E894A5912591359145915591A6F329
:10154000EF010E947409FE019701A801DA9469F77E
:10155000DF90EF90FF900F911F91CF91DF91089551
:101560009B01AC0160E070E080E89FE30C94760B97
:101570000C94E9080C94E80B0E941909D8F39923FC
:10158000C9F3940F511DA3F39150504094F059F0BA
:10159000882332F0660F771F881F91505040C1F7A3
:1015A0009E3F51052CF7880F911D9695879597F9C9
:1015B00008955F3FACF0983E9CF0BB2786957795E9
:1015C0006795B79508F4B1609395C1F7BB0F58F7CD
:1015D00011F460FFE8CF6F5F7F4F8F4F9F4FE3CFD6
:1015E0000C94340916F00C94E80B0C94EF086894F2
:1015F0000C94E9080E941909A8F39923C1F3AEF3EA
:10160000DF93CF931F930F93FF92C92FDD2788237A
:101610002AF02197660F771F881FDAF720E030E065
:1016200040E85FEB9FE3883920F0803E38F0219658
:101630008F770E945D09E0E9F0E004C00E945D0937
:10164000EDEBF0E00E94890A8B01BE01EC01FB2E5C
:101650006F5771097595771F880B990B0E94410888
:1016600028E132E741E35FE30E948F08AF2D980144
:10167000AE01FF900F911F91CF91DF910E947409ED
:101680000C940009FA01DC01AA0FBB1F9B01AC01FD
:10169000BF5728F4222733274427507820C0B7515A
:1016A00090F4AB2F0024469537952795011CA39500
:1016B000D2F3002071F0220F331F441FB395DAF3E9
:1016C0000ED00C945C0961307105A0E88A07B94618
:1016D00030F49B01AC0166277727882790783096F5
:1016E00021F0208331834283538308950E948A0B23
:1016F0000C9400090E94F90858F00E94F20840F08A
:1017000029F45F3F29F00C94E90851110C94340935
:101710000C94EF080E94110968F39923B1F3552343
:1017200091F3951B550BBB27AA27621773078407F4
:1017300038F09F5F5F4F220F331F441FAA1FA9F38A
:1017400035D00E2E3AF0E0E832D091505040E69578
:10175000001CCAF72BD0FE2F29D0660F771F881FD9
:10176000BB1F261737074807AB07B0E809F0BB0BCC
:10177000802DBF01FF2793585F4F3AF09E3F5105E0
:1017800078F00C94E9080C9434095F3FE4F3983E38
:10179000D4F3869577956795B795F7959F5FC9F7C9
:1017A000880F911D9695879597F90895E1E0660F4A
:1017B000771F881FBB1F621773078407BA0720F0C3
:1017C000621B730B840BBA0BEE1F88F7E09508952C
:1017D0009F3F31F0915020F4879577956795B795A5
:1017E000880F911D9695879597F90895EE0FFF1F25
:1017F0000590F491E02D0994FC018191861721F068
:101800008823D9F7992708953197CF010895FB01CF
:10181000DC014150504048F001900D920020C9F782
:1018200001C01D9241505040E0F70895F894FFCF59
:101830000040000000000000000000000000000068
:101840000040000000000000000000000000000058
:101850000040000000000000AF010F013C01FC014E
:101860006D014B015F010D0A00564D4450565F312A
:101870007C315F564D4450560A00564D4450525FDD
:101880000077656C636F6D65206C617365722073A2
:10189000686F7700564D4450455F003A323A007CFD
:1018A000005F564D4450450061783A0061793A0036
:1018B00062783A0062793A0063783A0063793A00D4
:0818C00064783A0064793A00F3
:00000001FF
